{
  "address": "0xe7f1725E7734CE288F8367e1Bb143E90bb3F0512",
  "abi": [
    {
      "inputs": [
        {
          "internalType": "address",
          "name": "priceFeed",
          "type": "address"
        }
      ],
      "stateMutability": "nonpayable",
      "type": "constructor"
    },
    {
      "inputs": [],
      "name": "FundMe__NotOwner",
      "type": "error"
    },
    {
      "inputs": [],
      "name": "MINIMUM_USD",
      "outputs": [
        {
          "internalType": "uint256",
          "name": "",
          "type": "uint256"
        }
      ],
      "stateMutability": "view",
      "type": "function"
    },
    {
      "inputs": [],
      "name": "cheaperWithdraw",
      "outputs": [],
      "stateMutability": "nonpayable",
      "type": "function"
    },
    {
      "inputs": [],
      "name": "fund",
      "outputs": [],
      "stateMutability": "payable",
      "type": "function"
    },
    {
      "inputs": [
        {
          "internalType": "address",
          "name": "fundingAddress",
          "type": "address"
        }
      ],
      "name": "getAddressToAmountFunded",
      "outputs": [
        {
          "internalType": "uint256",
          "name": "",
          "type": "uint256"
        }
      ],
      "stateMutability": "view",
      "type": "function"
    },
    {
      "inputs": [
        {
          "internalType": "uint256",
          "name": "index",
          "type": "uint256"
        }
      ],
      "name": "getFunder",
      "outputs": [
        {
          "internalType": "address",
          "name": "",
          "type": "address"
        }
      ],
      "stateMutability": "view",
      "type": "function"
    },
    {
      "inputs": [],
      "name": "getOwner",
      "outputs": [
        {
          "internalType": "address",
          "name": "",
          "type": "address"
        }
      ],
      "stateMutability": "view",
      "type": "function"
    },
    {
      "inputs": [],
      "name": "getPriceFeed",
      "outputs": [
        {
          "internalType": "contract AggregatorV3Interface",
          "name": "",
          "type": "address"
        }
      ],
      "stateMutability": "view",
      "type": "function"
    },
    {
      "inputs": [],
      "name": "getVersion",
      "outputs": [
        {
          "internalType": "uint256",
          "name": "",
          "type": "uint256"
        }
      ],
      "stateMutability": "view",
      "type": "function"
    },
    {
      "inputs": [],
      "name": "withdraw",
      "outputs": [],
      "stateMutability": "nonpayable",
      "type": "function"
    }
  ],
  "transactionHash": "0xee5ee73d9960a18052f9368cea459b28019add7c6f481129f1691054009af100",
  "args": [
    "0x5FbDB2315678afecb367f032d93F642f64180aa3"
  ],
  "numDeployments": 1,
  "solcInputHash": "f30902c9afbe95623c8e0c6cb5c80936",
  "bytecode": "0x60c06040523480156200001157600080fd5b506040516200137938038062001379833981810160405281019062000037919062000116565b8073ffffffffffffffffffffffffffffffffffffffff1660a08173ffffffffffffffffffffffffffffffffffffffff1660601b815250503373ffffffffffffffffffffffffffffffffffffffff1660808173ffffffffffffffffffffffffffffffffffffffff1660601b815250505062000148565b600080fd5b600073ffffffffffffffffffffffffffffffffffffffff82169050919050565b6000620000de82620000b1565b9050919050565b620000f081620000d1565b8114620000fc57600080fd5b50565b6000815190506200011081620000e5565b92915050565b6000602082840312156200012f576200012e620000ac565b5b60006200013f84828501620000ff565b91505092915050565b60805160601c60a05160601c6111db6200019e600039600081816102360152818161053a015261056d0152600081816102d90152818161046c0152818161051201528181610699015261088f01526111db6000f3fe6080604052600436106100865760003560e01c8063893d20e811610059578063893d20e8146101355780639e87a5cd14610160578063b60d42881461018b578063be2693f014610195578063d7b4750c146101ac57610086565b80630343fb251461008b5780630d8e6e2c146100c85780633ccfd60b146100f35780636b69a5921461010a575b600080fd5b34801561009757600080fd5b506100b260048036038101906100ad9190610b52565b6101e9565b6040516100bf9190610b98565b60405180910390f35b3480156100d457600080fd5b506100dd610232565b6040516100ea9190610b98565b60405180910390f35b3480156100ff57600080fd5b506101086102d7565b005b34801561011657600080fd5b5061011f610501565b60405161012c9190610b98565b60405180910390f35b34801561014157600080fd5b5061014a61050e565b6040516101579190610bc2565b60405180910390f35b34801561016c57600080fd5b50610175610536565b6040516101829190610c3c565b60405180910390f35b61019361055e565b005b3480156101a157600080fd5b506101aa610697565b005b3480156101b857600080fd5b506101d360048036038101906101ce9190610c83565b610925565b6040516101e09190610bc2565b60405180910390f35b6000600160008373ffffffffffffffffffffffffffffffffffffffff1673ffffffffffffffffffffffffffffffffffffffff168152602001908152602001600020549050919050565b60007f000000000000000000000000000000000000000000000000000000000000000073ffffffffffffffffffffffffffffffffffffffff166354fd4d506040518163ffffffff1660e01b815260040160206040518083038186803b15801561029a57600080fd5b505afa1580156102ae573d6000803e3d6000fd5b505050506040513d601f19601f820116820180604052508101906102d29190610cc5565b905090565b7f000000000000000000000000000000000000000000000000000000000000000073ffffffffffffffffffffffffffffffffffffffff163373ffffffffffffffffffffffffffffffffffffffff161461035c576040517f579610db00000000000000000000000000000000000000000000000000000000815260040160405180910390fd5b60005b60008054905081101561040757600080828154811061038157610380610cf2565b5b9060005260206000200160009054906101000a900473ffffffffffffffffffffffffffffffffffffffff1690506000600160008373ffffffffffffffffffffffffffffffffffffffff1673ffffffffffffffffffffffffffffffffffffffff168152602001908152602001600020819055505080806103ff90610d50565b91505061035f565b50600067ffffffffffffffff81111561042357610422610d99565b5b6040519080825280602002602001820160405280156104515781602001602082028036833780820191505090505b5060009080519060200190610467929190610a48565b5060007f000000000000000000000000000000000000000000000000000000000000000073ffffffffffffffffffffffffffffffffffffffff16476040516104ae90610df9565b60006040518083038185875af1925050503d80600081146104eb576040519150601f19603f3d011682016040523d82523d6000602084013e6104f0565b606091505b50509050806104fe57600080fd5b50565b6802b5e3af16b188000081565b60007f0000000000000000000000000000000000000000000000000000000000000000905090565b60007f0000000000000000000000000000000000000000000000000000000000000000905090565b6802b5e3af16b188000061059b7f00000000000000000000000000000000000000000000000000000000000000003461096c90919063ffffffff16565b10156105dc576040517f08c379a00000000000000000000000000000000000000000000000000000000081526004016105d390610e6b565b60405180910390fd5b34600160003373ffffffffffffffffffffffffffffffffffffffff1673ffffffffffffffffffffffffffffffffffffffff168152602001908152602001600020600082825461062b9190610e8b565b925050819055506000339080600181540180825580915050600190039060005260206000200160009091909190916101000a81548173ffffffffffffffffffffffffffffffffffffffff021916908373ffffffffffffffffffffffffffffffffffffffff160217905550565b7f000000000000000000000000000000000000000000000000000000000000000073ffffffffffffffffffffffffffffffffffffffff163373ffffffffffffffffffffffffffffffffffffffff161461071c576040517f579610db00000000000000000000000000000000000000000000000000000000815260040160405180910390fd5b60008080548060200260200160405190810160405280929190818152602001828054801561079f57602002820191906000526020600020905b8160009054906101000a900473ffffffffffffffffffffffffffffffffffffffff1673ffffffffffffffffffffffffffffffffffffffff1681526020019060010190808311610755575b5050505050905060005b815181101561082a5760008282815181106107c7576107c6610cf2565b5b602002602001015190506000600160008373ffffffffffffffffffffffffffffffffffffffff1673ffffffffffffffffffffffffffffffffffffffff1681526020019081526020016000208190555050808061082290610d50565b9150506107a9565b50600067ffffffffffffffff81111561084657610845610d99565b5b6040519080825280602002602001820160405280156108745781602001602082028036833780820191505090505b506000908051906020019061088a929190610a48565b5060007f000000000000000000000000000000000000000000000000000000000000000073ffffffffffffffffffffffffffffffffffffffff16476040516108d190610df9565b60006040518083038185875af1925050503d806000811461090e576040519150601f19603f3d011682016040523d82523d6000602084013e610913565b606091505b505090508061092157600080fd5b5050565b600080828154811061093a57610939610cf2565b5b9060005260206000200160009054906101000a900473ffffffffffffffffffffffffffffffffffffffff169050919050565b600080610978836109a8565b90506000670de0b6b3a764000085836109919190610ee1565b61099b9190610f6a565b9050809250505092915050565b6000808273ffffffffffffffffffffffffffffffffffffffff1663feaf968c6040518163ffffffff1660e01b815260040160a06040518083038186803b1580156109f157600080fd5b505afa158015610a05573d6000803e3d6000fd5b505050506040513d601f19601f82011682018060405250810190610a299190611013565b5050509150506402540be40081610a40919061108e565b915050919050565b828054828255906000526020600020908101928215610ac1579160200282015b82811115610ac05782518260006101000a81548173ffffffffffffffffffffffffffffffffffffffff021916908373ffffffffffffffffffffffffffffffffffffffff16021790555091602001919060010190610a68565b5b509050610ace9190610ad2565b5090565b5b80821115610aeb576000816000905550600101610ad3565b5090565b600080fd5b600073ffffffffffffffffffffffffffffffffffffffff82169050919050565b6000610b1f82610af4565b9050919050565b610b2f81610b14565b8114610b3a57600080fd5b50565b600081359050610b4c81610b26565b92915050565b600060208284031215610b6857610b67610aef565b5b6000610b7684828501610b3d565b91505092915050565b6000819050919050565b610b9281610b7f565b82525050565b6000602082019050610bad6000830184610b89565b92915050565b610bbc81610b14565b82525050565b6000602082019050610bd76000830184610bb3565b92915050565b6000819050919050565b6000610c02610bfd610bf884610af4565b610bdd565b610af4565b9050919050565b6000610c1482610be7565b9050919050565b6000610c2682610c09565b9050919050565b610c3681610c1b565b82525050565b6000602082019050610c516000830184610c2d565b92915050565b610c6081610b7f565b8114610c6b57600080fd5b50565b600081359050610c7d81610c57565b92915050565b600060208284031215610c9957610c98610aef565b5b6000610ca784828501610c6e565b91505092915050565b600081519050610cbf81610c57565b92915050565b600060208284031215610cdb57610cda610aef565b5b6000610ce984828501610cb0565b91505092915050565b7f4e487b7100000000000000000000000000000000000000000000000000000000600052603260045260246000fd5b7f4e487b7100000000000000000000000000000000000000000000000000000000600052601160045260246000fd5b6000610d5b82610b7f565b91507fffffffffffffffffffffffffffffffffffffffffffffffffffffffffffffffff821415610d8e57610d8d610d21565b5b600182019050919050565b7f4e487b7100000000000000000000000000000000000000000000000000000000600052604160045260246000fd5b600081905092915050565b50565b6000610de3600083610dc8565b9150610dee82610dd3565b600082019050919050565b6000610e0482610dd6565b9150819050919050565b600082825260208201905092915050565b7f596f75206e65656420746f207370656e64206d6f726520455448210000000000600082015250565b6000610e55601b83610e0e565b9150610e6082610e1f565b602082019050919050565b60006020820190508181036000830152610e8481610e48565b9050919050565b6000610e9682610b7f565b9150610ea183610b7f565b9250827fffffffffffffffffffffffffffffffffffffffffffffffffffffffffffffffff03821115610ed657610ed5610d21565b5b828201905092915050565b6000610eec82610b7f565b9150610ef783610b7f565b9250817fffffffffffffffffffffffffffffffffffffffffffffffffffffffffffffffff0483118215151615610f3057610f2f610d21565b5b828202905092915050565b7f4e487b7100000000000000000000000000000000000000000000000000000000600052601260045260246000fd5b6000610f7582610b7f565b9150610f8083610b7f565b925082610f9057610f8f610f3b565b5b828204905092915050565b600069ffffffffffffffffffff82169050919050565b610fba81610f9b565b8114610fc557600080fd5b50565b600081519050610fd781610fb1565b92915050565b6000819050919050565b610ff081610fdd565b8114610ffb57600080fd5b50565b60008151905061100d81610fe7565b92915050565b600080600080600060a0868803121561102f5761102e610aef565b5b600061103d88828901610fc8565b955050602061104e88828901610ffe565b945050604061105f88828901610cb0565b935050606061107088828901610cb0565b925050608061108188828901610fc8565b9150509295509295909350565b600061109982610fdd565b91506110a483610fdd565b9250827f7fffffffffffffffffffffffffffffffffffffffffffffffffffffffffffffff04821160008413600084131616156110e3576110e2610d21565b5b817f800000000000000000000000000000000000000000000000000000000000000005831260008412600084131616156111205761111f610d21565b5b827f8000000000000000000000000000000000000000000000000000000000000000058212600084136000841216161561115d5761115c610d21565b5b827f7fffffffffffffffffffffffffffffffffffffffffffffffffffffffffffffff058212600084126000841216161561119a57611199610d21565b5b82820290509291505056fea26469706673582212205cc0ed3d63cba80c6be4c7213bab394cd1683299b1bff607a3de8593867c439964736f6c63430008080033",
  "devdoc": {
    "kind": "dev",
    "methods": {
      "getAddressToAmountFunded(address)": {
        "params": {
          "fundingAddress": "the address of the funder"
        },
        "returns": {
          "_0": "the amount funded"
        }
      }
    },
    "version": 1
  },
  "userdoc": {
    "kind": "user",
    "methods": {
      "fund()": {
        "notice": "Funds our contract based on the ETH/USD price"
      },
      "getAddressToAmountFunded(address)": {
        "notice": "Gets the amount that an address has funded"
      }
    },
    "version": 1
  },
  "storageLayout": {
    "storage": [
      {
        "astId": 66,
        "contract": "contracts/FundeMe.sol:FundMe",
        "label": "s_funders",
        "offset": 0,
        "slot": "0",
        "type": "t_array(t_address)dyn_storage"
      },
      {
        "astId": 70,
        "contract": "contracts/FundeMe.sol:FundMe",
        "label": "s_addressToAmountFunded",
        "offset": 0,
        "slot": "1",
        "type": "t_mapping(t_address,t_uint256)"
      }
    ],
    "types": {
      "t_address": {
        "encoding": "inplace",
        "label": "address",
        "numberOfBytes": "20"
      },
      "t_array(t_address)dyn_storage": {
        "base": "t_address",
        "encoding": "dynamic_array",
        "label": "address[]",
        "numberOfBytes": "32"
      },
      "t_mapping(t_address,t_uint256)": {
        "encoding": "mapping",
        "key": "t_address",
        "label": "mapping(address => uint256)",
        "numberOfBytes": "32",
        "value": "t_uint256"
      },
      "t_uint256": {
        "encoding": "inplace",
        "label": "uint256",
        "numberOfBytes": "32"
      }
    }
  }
}